:020000040800F2
:1000000000400020451400082114000823140008B3
:1000100000000000000000000000000000000000E0
:10002000000000000000000000000000251400088F
:100030000000000000000000271400082914000838
:1000400095140008951400089514000895140008EC
:1000500095140008951400089514000895140008DC
:1000600095140008951400089514000895140008CC
:100070009514000895140008951400083114000820
:1000800095140008951400089514000895140008AC
:10009000951400089514000895140008951400089C
:1000A000951400089514000895140008951400088C
:1000B000951400089514000895140008951400087C
:1000C00010B5064C2378002B07D1054B002B02D02E
:1000D000044800E000BF0123237010BD0C00002085
:1000E0000000000004150008044B10B5002B03D0DD
:1000F0000349044800E000BF10BDC04600000000F6
:10010000100000200415000802B471464908490097
:10011000095C49008E4402BC7047C0460022430877
:100120008B4274D303098B425FD3030A8B4244D3BF
:10013000030B8B4228D3030C8B420DD3FF22090201
:1001400012BA030C8B4202D31212090265D0030BC0
:100150008B4219D300E0090AC30B8B4201D3CB03B6
:10016000C01A5241830B8B4201D38B03C01A5241F8
:10017000430B8B4201D34B03C01A5241030B8B42FA
:1001800001D30B03C01A5241C30A8B4201D3CB02E5
:10019000C01A5241830A8B4201D38B02C01A5241CA
:1001A000430A8B4201D34B02C01A5241030A8B42CD
:1001B00001D30B02C01A5241CDD2C3098B4201D3E5
:1001C000CB01C01A524183098B4201D38B01C01A63
:1001D000524143098B4201D34B01C01A52410309DA
:1001E0008B4201D30B01C01A5241C3088B4201D389
:1001F000CB00C01A524183088B4201D38B00C01A36
:10020000524143088B4201D34B00C01A5241411A5C
:1002100000D20146524110467047FFE701B5002069
:1002200000F006F802BDC0460029F7D076E7704717
:100230007047C04670B50500FA200D4B8000197854
:10024000FFF76CFF0B4B01001868FFF767FF00F02A
:1002500073F804000120002C09D1032D07D80238BF
:100260002200290000F02CF82000034B1D6070BD17
:100270000000002008000020040000201023064A8F
:1002800010B5116800200B431360FFF7D3FF01F096
:100290006FF8002010BDC04600200240034A044B06
:1002A00011681B785B1813607047C0462800002057
:1002B00000000020014B18687047C046280000204D
:1002C00070B58901002812DB8308134A03249B00C0
:1002D0009B18FF222040A0401400C02584401140FC
:1002E0008140AD005E59A6433143595170BD03248E
:1002F0000F23C0B203402040A040FC342500214021
:1003000085408140083B054A9B089B009B18DA69A1
:10031000AA431143D961E9E700E100E000ED00E004
:10032000002805DB1F2318401E3B8340014A136051
:100330007047C04600E100E0094A431E0120934295
:100340000DD8C021074A08485360036A09061B02FA
:100350001B0A0B4303620020072390601360704761
:10036000FFFFFF0010E000E000ED00E0F0B5564AAE
:100370000B688218541EA24189B0039300230432F3
:100380000592039ADA4001D109B0F0BD01229A40EA
:1003900094466446039A2240029200D192E04A6851
:1003A00001921022019E9643022E0DD107240F27A1
:1003B0001C40A400A740DA0892008218156ABD43C9
:1003C0000F69A7403D431562032214005D00AC4055
:1003D000E4430768013E27400497019F3A40AA4042
:1003E000049F3A430260012E0ED8CA688668AA406C
:1003F000264032438260624646689643019AD2069E
:10040000D20F9A4032434260C26814408A68AA40C0
:100410001443019AC460D20054D501262B4A1D0012
:1004200094693443946192699C0832400792079A18
:10043000274AA400A418A268944603221540AD00E0
:100440000C32AA40674697439022D2059446002278
:1004500060450DD01F4A94463200604508D01E4EBC
:100460009218B04204D01D4E0132B04200D0059A1D
:10047000AA403A43A2601A4A029C1668029D019F54
:10048000E4433543FF0301D4350025401560566829
:10049000029D019F3543BF0301D4350025405560BF
:1004A0009668029D019F3543FF0201D43500254027
:1004B0009560D568029E019F2E43BF0201D425405E
:1004C0002E00D66001335CE700F0FFB70010024059
:1004D000000001400004004800080048000C0048EB
:1004E00000040140F0B5040085B0002802D10120CD
:1004F00005B0F0BD0368DB0733D423689B0700D544
:1005000087E023681B0700D5C8E023685B0700D598
:10051000EBE02368DB061AD56269BC4D0423012A8F
:1005200000D057E1696B02260B436B636B6B1A4378
:100530006A63FFF7BFFE07006B6B334200D142E1F5
:10054000F8216A6BA3698A43DB0013436B6323685A
:100550009B0600D566E1626A002A00D0A3E1002074
:10056000C6E70C21A94D6A680A40042A0BD06B68C3
:100570000B40082B0ED1C0226B6852021340802220
:100580005202934206D12B689B03B6D56368002BB9
:10059000B3D1ACE76368012B13D180232A685B02D7
:1005A00013432B60FFF786FE80260700B6022B68F8
:1005B0003342A2D1FFF77EFEC01B6428F7D9032087
:1005C00096E7002B15D12B68914A802613402B60AB
:1005D0002B68904AB60213402B60FFF76BFE0700B2
:1005E0002B68334289D0FFF765FEC01B6428F7D91A
:1005F000E5E7052B05D180232A68DB0213432B6036
:10060000CBE72B68824A13402B602B68814A13404A
:10061000C7E70C227D4D6B6813420BD06B6813400B
:10062000082B16D1C0226B6852021340802212029E
:1006300093420ED12B689B0703D5E368012B00D0B2
:1006400055E7F8212A6823698A43DB0013432B60AE
:1006500057E7E2680123002A0FD02A6802261343D5
:100660002B60FFF727FE07002B683342E9D1FFF725
:1006700021FEC01B0228F7D9A1E72A6802269A4367
:100680002A60FFF717FE07002B68334200D138E7D6
:10069000FFF710FEC01B0228F6D990E7E26901239C
:1006A0005A4D002A10D06A6A022613436B62FFF784
:1006B00001FE07006B6A334200D026E7FFF7FAFD20
:1006C000C01B0228F6D97AE76A6A02269A436A6250
:1006D000FFF7F0FD07006B6A334200D115E7FFF723
:1006E000E9FDC01B0228F6D969E780220021474DA9
:1006F0005205EB690091134208D1EB691343EB619A
:10070000EB6913400393039B012300938027424E20
:100710007F0033683B4206D0A368012B13D12A6ABD
:1007200013432B6230E033683B433360FFF7C2FD75
:10073000019033683B42EFD1FFF7BCFD019BC01A2B
:100740006428F6D93BE70122002B14D12B6A02273B
:1007500093432B622B6A033293432B62FFF7AAFD6C
:1007600006002B6A3B4225D0FFF7A4FD2B4B801BD4
:100770009842F6D923E7052B0BD1296A013B0B439D
:100780002B622B6A1A432A62FFF794FD02270600A8
:100790000DE02B6A934304222B622B6A9343C0E73C
:1007A000FFF788FD1D4B801B984200D907E72B6A95
:1007B0003B42F5D0009B012B00D0AAE6EB69184A1A
:1007C0001340EB61A5E6FFF775FDC01B022800D8BA
:1007D000B2E6F4E6053203D16A6B9A436A63AFE688
:1007E0006A6B0226134301226B636B6B93436B634B
:1007F000FFF760FD07006B6B334200D1A7E6FFF700
:1008000059FDC01B0228F6D9D9E6C04600100240A7
:10081000FFFFFEFFFFFFFBFF00700040881300009A
:10082000FFFFFFEF0C21534D6A680A408A4209D04E
:100830006B680B40082B0ED1C0226B68520213402C
:10084000934208D16B6BDB0300D484E6236A012B4F
:1008500000D04CE67FE6236A002B11D080266B6B1C
:10086000760233436B63FFF725FD07006B6B334262
:1008700000D070E6FFF71EFDC01B0228F6D99EE6E9
:100880006B6B3D4A802613406B63FFF713FD070037
:1008900076026B6B334200D15DE6FFF70BFDC01BA8
:1008A0000228F6D98BE60C20324B59681D00014016
:1008B000082944D01B6831490B402B60022A2FD1F4
:1008C000FFF7F8FC80260700B6042B68334221D1DD
:1008D0000F22EB6A9343226B1343EB62A16AE36A34
:1008E0006A680B43264980240A4013436B608023C7
:1008F0002A685B0413432B60FFF7DCFC0600A404AA
:100900002B68234200D02AE6FFF7D4FC801B022884
:10091000F6D954E6FFF7CEFCC01B0228D5D94EE627
:10092000FFF7C8FC80240600A4042B68234200D1F2
:1009300015E6FFF7BFFC801B0228F6D93FE6012A27
:1009400000D1D4E5C0225868A16A5202DB6A024095
:100950008A4200D0CBE50F221340226B934200D095
:10096000C5E5F0239B031840E36AC01A431E984173
:10097000C0B2BDE500100240FFFFFEFFFFFFFFFE1B
:10098000FF7FC2FF70B5194C88B010222100684665
:1009900000F0A6FD210004AD10221031280000F067
:1009A0009FFD0C22124E73681A40082A04D00C2AAC
:1009B0001AD1104808B070BD0F206A46990C01404A
:1009C000545CF26A0240A95CC022802052021340AB
:1009D0004002834201D1084802E09342FBD105481E
:1009E000FFF79CFB6043E5E70348E3E71C150008BD
:1009F00000100240006CDC0200127A00F7B505001E
:100A00000F00002801D10120FEBD01223B4C2368CC
:100A100013408B421CD329688B0722D4CB072FD4D9
:100A2000012322681A40974259D32B68344C5B0744
:100A30005DD4FFF7A7FF6368324A1B061B0FD35C28
:100A4000D840314B18600020FFF7F4FB0020DBE7B3
:100A5000236893430B432360236813409942D2D108
:100A6000D9E7274A4B0704D5E0235068DB0003434E
:100A70005360F02053688343A86803435360CDE775
:100A80006A681F4E012A1AD133689B03BBD5032124
:100A900073688B4313437360FFF70CFC01900C23C6
:100AA00072681A406B689B009A42B9D0FFF702FC4B
:100AB000019BC01A154B9842F1D90320A4E7022AE2
:100AC00003D133689B01E2D49DE7032A03D1736B02
:100AD000DB03DCD497E733689B07D8D493E722681D
:100AE0009A43226022681A4200D08CE79DE763682F
:100AF000074A1340EA68134363609AE70020024004
:100B0000001002403C150008080000208813000077
:100B1000FFF8FFFF0122036A70B593430362036A83
:100B200044688569723295430A68154302229343EB
:100B30008A681343144A904208D0144EB04205D03C
:100B4000134EB04202D0134EB04216D10826B34322
:100B5000CE6833430426B343904208D00B4A9042F8
:100B600005D00B4A904202D00A4A904205D10A4A67
:100B70008E6922404C69344314434A68446085615D
:100B80004263036270BDC046002C0140004001403A
:100B90000044014000480140FFFCFFFF70B5732591
:100BA000036A174A13400362036A4268C469AC438C
:100BB0000D682C43134D2B408D682D022B43124D95
:100BC000A8420ED1114D1D40CB681B022B43104D86
:100BD0002B40104D4E6915408A69324312012A4359
:100BE00008E00D4DA842F4D00C4DA842F1D00C4DB8
:100BF000A842EED042604A68C461C263036270BD1D
:100C0000FFFEFFFFFFFDFFFF002C0140FFF7FFFF8E
:100C1000FFFBFFFFFFCFFFFF00400140004401400A
:100C200000480140036A144A30B513400362026A67
:100C3000124C4368C56925400C6824022543104CBA
:100C400022408C68240322430E4CA04208D00E4C54
:100C5000A04205D00D4CA04202D00D4CA04204D1C0
:100C60000C4C23404C69A401234343604B68C5618D
:100C70000364026230BDC046FFEFFFFFFF8CFFFF41
:100C8000FFDFFFFF002C0140004001400044014015
:100C900000480140FFBFFFFF704770477047704733
:100CA000704770470222036810B5196904001142A9
:100CB0000ED0D96811420BD0053A1A619B690432F3
:100CC00002779B0700D179E0FFF7E9FF0023237744
:100CD000042223681969114210D0D96811420DD03D
:100CE000093A1A61073222779A69C0239B002000D3
:100CF0001A4269D0FFF7D3FF002323770822236825
:100D0000196911420ED0D96811420BD0113A1A61FB
:100D1000DB690D32227720009B075BD0FFF7BFFF16
:100D200000232377102223681969114210D0D96853
:100D300011420DD0213A1A6119322277DA69C023A3
:100D40009B0020001A424BD0FFF7A9FF0023237716
:100D5000012223681969114207D0D968114204D0D1
:100D6000033A1A612000FFF798FF8022236819696F
:100D7000114208D0D968114205D0023AFF3A1A61EF
:100D8000200000F074FA402223681969114207D04C
:100D9000D968114204D0813A1A612000FFF781FF1F
:100DA000202223681969114207D0D968114204D062
:100DB000413A1A61200000F059FA10BDFFF76EFFAA
:100DC0002000FFF76DFF81E7FFF768FF2000FFF7C6
:100DD00067FF91E7FFF762FF2000FFF761FF9FE7E2
:100DE000FFF75CFF2000FFF75BFFAFE7204A10B57D
:100DF0000368904206D08024E405A04202D01D4C36
:100E0000A0420CD17024A3434C682343904212D0DB
:100E10008024E405A0420ED0164CA0420BD0164C04
:100E2000A04208D0154CA04205D0154CA04202D0DB
:100E3000144CA04203D1144C2340CC68234380249B
:100E4000A3434C69234303608B68C3620B688362CE
:100E5000904208D0094B984205D0094B984202D0E5
:100E6000084B984201D10B6903630123436110BD14
:100E7000002C0140000400400020004000400140E0
:100E80000044014000480140FFFCFFFF70B5040032
:100E90000120002C14D025003D352B78DBB2002B2F
:100EA00005D122003C321370200000F079FA0223B1
:100EB00020682B70211DFFF799FF012300202B7064
:100EC00070BD70B504000120002C14D025003D3504
:100ED0002B78DBB2002B05D122003C3213702000AE
:100EE000FFF7DAFE022320682B70211DFFF77EFF3B
:100EF000012300202B7070BD1022036A70B593434C
:100F00000362026A164D436884692C400D682D0205
:100F10002C432025AA438D682D012A43114DA84258
:100F20000FD18025AA431500CA6812012A43402523
:100F3000AA430D4D4E691D408B6933439B002B43E3
:100F400008E00A4DA842F4D0094DA842F1D0094D5D
:100F5000A842EED043604B6884618363026270BD37
:100F6000FF8CFFFF002C0140FFF3FFFF004001401A
:100F70000044014000480140F8B5060002233C3619
:100F80000D00317804001800012925D02700012127
:100F90003D3731703B700C2A1AD81000FFF7B4F8B7
:100FA000071818181D1818182F18181841002900AC
:100FB0002068FFF7AFFD0822236899690A430421DE
:100FC0009A619A698A439A619A6929690A439A617E
:100FD000012300203B703070F8BD29002068FFF726
:100FE0008BFF80222368120199690A439A619A69EA
:100FF00015490A409A612A6999691202E6E72900AF
:101000002068FFF7CBFD08222368D9690A43042131
:10101000DA61DA698A43DA61DA6929690A43DA61ED
:10102000D6E729002068FFF7FDFD80222368120122
:10103000D9690A43DA61DA6903490A40DA612A693F
:10104000D9691202EAE7C046FFFBFFFF30B58468AA
:10105000034D0A431B022C4013432343836030BDDE
:10106000FF00FFFFF8B5050002233C352A78040095
:101070001800012A16D02600012720683D362F705F
:1010800033708368404A134083600B68402B65D0FF
:1010900014D8102B0BD006D8002B08D00123002029
:1010A00033702870F8BD202B01D0302BF6D1702280
:1010B00081689143693A13430B431AE0602B35D0A2
:1010C00019D8502BEAD14A68CB68016A046A1B011F
:1010D000BC43F02704628469BC4323430A24A14330
:1010E0000A43836102627022836893431A00572384
:1010F00013438360D2E7702B0DD08022920193427C
:10110000CCD1CB684A688968FFF7A0FF80232268AA
:10111000DB01916807E0CB684A688968FFF796FFB2
:101120007723226891680B439360B7E710244B68DC
:10113000CA68016A154FA1430162846912033C40E9
:101140002243A024016A82617022A1431B010B4348
:101150000362836893431A006723C9E74A68CB6830
:10116000016A046A1B01BC43F02704628469BC4322
:1011700023430A24A1430A438361026270228368E5
:1011800093431A004723B3E78800FFFFFF0FFFFFD9
:101190001F2310B5012419408C408A40036AA343E1
:1011A0000362036A1A43026210BD000010B5040016
:1011B00001220068FFF7ECFF23680E4A934213D028
:1011C0000D4A934210D00D4A93420DD00C4A9342DF
:1011D0000AD007219A680A40062A03D0012219681A
:1011E0000A431A60002010BD8022596C12020A4383
:1011F0005A64EEE7002C01400040014000440140E9
:101200000048014070B5040002223C3425780300F8
:101210001000012D22D01D0070261B6801383D35BD
:1012200020702A7058689A68B0430E68304358603E
:101230000B48834209D08020C005834205D009486D
:10124000834202D00848834204D180204968824307
:101250000A439A60012300202B70207070BDC046A5
:10126000002C0140000400400040014070477047DE
:1012700070B5102692B03422002105A800F039F98B
:101280003200002101A800F034F980231B020F93E3
:101290008023022401255B0305A81093059408957B
:1012A00009960E94FFF71EF90723019300232900E6
:1012B00001A8029403930493FFF7A0FB12B070BD42
:1012C00070B58EB0FEF7DAFFFFF7D2FF8020264A16
:1012D000C0025169802601435161536900210340D6
:1012E0000093102203A8009B00F003F908220021BC
:1012F00001A800F0FEF81C22002107A800F0F9F870
:1013000017230025194CF605636020004C33E36079
:101310002660A5602561A561FFF7B8FD802303A9BC
:101320005B0120000393FFF79DFE2000FFF7C9FD3E
:1013300001A9200001950295FFF764FF60230422B4
:1013400007A907932000483B089309950B95FFF7E1
:1013500013FE200000F03EF804212000FFF726FFD6
:101360001E23B363FEE7C046001002402C0000209D
:1013700001200A4B82B099690143996180219A69E1
:10138000490502400092009ADA690A43DA61DB6992
:101390000B400193019B02B07047C0460010024011
:1013A000802307B50268DB059A4210D10120084A64
:1013B000D1690143D161D3690022034001930E300A
:1013C0001100019BFEF77CFF0F20FEF7A9FF07BD70
:1013D0000010024010B5040086B01422002101A8BC
:1013E00000F087F880232268DB059A4212D1802022
:1013F000094AC002516901435161536901A903407F
:101400000093009B082305480193063B0293059334
:10141000FEF7ACFF06B010BD00100240000400480B
:101420007047FEE77047704710B5FEF737FF10BDF5
:1014300010B50248FFF736FC10BDC0462C00002056
:10144000704700000D4885460D480E490E4A00239E
:1014500002E0D458C4500433C4188C42F9D30B4A68
:101460000B4C002301E013600432A242FBD3FFF7D0
:10147000E7FF00F011F8FFF723FFFEE70040002030
:10148000000000200C000020541500080C00002073
:101490006C000020FEE7000070B500260C4D0D4CDE
:1014A000641BA410A64209D1002600F02BF80A4DB7
:1014B0000A4C641BA410A64205D170BDB300EB58C2
:1014C00098470136EEE7B300EB5898470136F2E74C
:1014D0004C1500084C1500084C1500085015000864
:1014E000002310B59A4200D110BDCC5CC454013326
:1014F000F8E703008218934200D170471970013356
:10150000F9E70000F8B5C046F8BC08BC9E46704735
:0C151000F8B5C046F8BC08BC9E46704709
:10151C0002030405060708090A0B0C0D0E0F101028
:10152C000102030405060708090A0B0C0D0E0F1027
:10153C000000000000000000010203040607080977
:04154C00E9000008AA
:04155000C1000008CE
:0C155400010000000400000000127A00FA
:040000050800144596
:00000001FF
